{
  "contractName": "TrueDeckToken",
  "abi": [
    {
      "constant": true,
      "inputs": [],
      "name": "name",
      "outputs": [
        {
          "name": "",
          "type": "string"
        }
      ],
      "payable": false,
      "stateMutability": "view",
      "type": "function"
    },
    {
      "constant": true,
      "inputs": [],
      "name": "INITIAL_SUPPLY",
      "outputs": [
        {
          "name": "",
          "type": "uint256"
        }
      ],
      "payable": false,
      "stateMutability": "view",
      "type": "function"
    },
    {
      "constant": true,
      "inputs": [],
      "name": "decimals",
      "outputs": [
        {
          "name": "",
          "type": "uint8"
        }
      ],
      "payable": false,
      "stateMutability": "view",
      "type": "function"
    },
    {
      "constant": true,
      "inputs": [],
      "name": "symbol",
      "outputs": [
        {
          "name": "",
          "type": "string"
        }
      ],
      "payable": false,
      "stateMutability": "view",
      "type": "function"
    },
    {
      "inputs": [],
      "payable": false,
      "stateMutability": "nonpayable",
      "type": "constructor"
    },
    {
      "anonymous": false,
      "inputs": [
        {
          "indexed": true,
          "name": "from",
          "type": "address"
        },
        {
          "indexed": true,
          "name": "to",
          "type": "address"
        },
        {
          "indexed": false,
          "name": "value",
          "type": "uint256"
        }
      ],
      "name": "Transfer",
      "type": "event"
    },
    {
      "anonymous": false,
      "inputs": [
        {
          "indexed": true,
          "name": "owner",
          "type": "address"
        },
        {
          "indexed": true,
          "name": "spender",
          "type": "address"
        },
        {
          "indexed": false,
          "name": "value",
          "type": "uint256"
        }
      ],
      "name": "Approval",
      "type": "event"
    },
    {
      "constant": true,
      "inputs": [],
      "name": "totalSupply",
      "outputs": [
        {
          "name": "",
          "type": "uint256"
        }
      ],
      "payable": false,
      "stateMutability": "view",
      "type": "function"
    },
    {
      "constant": false,
      "inputs": [
        {
          "name": "_to",
          "type": "address"
        },
        {
          "name": "_value",
          "type": "uint256"
        }
      ],
      "name": "transfer",
      "outputs": [
        {
          "name": "",
          "type": "bool"
        }
      ],
      "payable": false,
      "stateMutability": "nonpayable",
      "type": "function"
    },
    {
      "constant": false,
      "inputs": [
        {
          "name": "_from",
          "type": "address"
        },
        {
          "name": "_to",
          "type": "address"
        },
        {
          "name": "_value",
          "type": "uint256"
        }
      ],
      "name": "transferFrom",
      "outputs": [
        {
          "name": "",
          "type": "bool"
        }
      ],
      "payable": false,
      "stateMutability": "nonpayable",
      "type": "function"
    },
    {
      "constant": false,
      "inputs": [
        {
          "name": "_spender",
          "type": "address"
        },
        {
          "name": "_value",
          "type": "uint256"
        }
      ],
      "name": "approve",
      "outputs": [
        {
          "name": "",
          "type": "bool"
        }
      ],
      "payable": false,
      "stateMutability": "nonpayable",
      "type": "function"
    },
    {
      "constant": true,
      "inputs": [
        {
          "name": "_owner",
          "type": "address"
        },
        {
          "name": "_spender",
          "type": "address"
        }
      ],
      "name": "allowance",
      "outputs": [
        {
          "name": "",
          "type": "uint256"
        }
      ],
      "payable": false,
      "stateMutability": "view",
      "type": "function"
    },
    {
      "constant": false,
      "inputs": [
        {
          "name": "_spender",
          "type": "address"
        },
        {
          "name": "_addedValue",
          "type": "uint256"
        }
      ],
      "name": "increaseApproval",
      "outputs": [
        {
          "name": "",
          "type": "bool"
        }
      ],
      "payable": false,
      "stateMutability": "nonpayable",
      "type": "function"
    },
    {
      "constant": false,
      "inputs": [
        {
          "name": "_spender",
          "type": "address"
        },
        {
          "name": "_subtractedValue",
          "type": "uint256"
        }
      ],
      "name": "decreaseApproval",
      "outputs": [
        {
          "name": "",
          "type": "bool"
        }
      ],
      "payable": false,
      "stateMutability": "nonpayable",
      "type": "function"
    },
    {
      "constant": true,
      "inputs": [
        {
          "name": "_owner",
          "type": "address"
        }
      ],
      "name": "balanceOf",
      "outputs": [
        {
          "name": "",
          "type": "uint256"
        }
      ],
      "payable": false,
      "stateMutability": "view",
      "type": "function"
    }
  ],
  "bytecode": "0x60806040526aa56fa5b99019a5c800000060035534801561001f57600080fd5b50600354600160a060020a0333166000908152602081905260409020819055600255610874806100506000396000f3006080604052600436106100b95763ffffffff7c010000000000000000000000000000000000000000000000000000000060003504166306fdde0381146100be578063095ea7b31461014857806318160ddd1461018057806323b872dd146101a75780632ff2e9dc146101d1578063313ce567146101e6578063661884631461021157806370a082311461023557806395d89b4114610256578063a9059cbb1461026b578063d73dd6231461028f578063dd62ed3e146102b3575b600080fd5b3480156100ca57600080fd5b506100d36102da565b6040805160208082528351818301528351919283929083019185019080838360005b8381101561010d5781810151838201526020016100f5565b50505050905090810190601f16801561013a5780820380516001836020036101000a031916815260200191505b509250505060405180910390f35b34801561015457600080fd5b5061016c600160a060020a0360043516602435610311565b604080519115158252519081900360200190f35b34801561018c57600080fd5b5061019561037b565b60408051918252519081900360200190f35b3480156101b357600080fd5b5061016c600160a060020a0360043581169060243516604435610381565b3480156101dd57600080fd5b506101956104ff565b3480156101f257600080fd5b506101fb610505565b6040805160ff9092168252519081900360200190f35b34801561021d57600080fd5b5061016c600160a060020a036004351660243561050a565b34801561024157600080fd5b50610195600160a060020a0360043516610602565b34801561026257600080fd5b506100d361061d565b34801561027757600080fd5b5061016c600160a060020a0360043516602435610654565b34801561029b57600080fd5b5061016c600160a060020a036004351660243561074b565b3480156102bf57600080fd5b50610195600160a060020a03600435811690602435166107ed565b60408051808201909152600881527f547275654465636b000000000000000000000000000000000000000000000000602082015281565b600160a060020a03338116600081815260016020908152604080832094871680845294825280832086905580518681529051929493927f8c5be1e5ebec7d5bd14f71427d1e84f3dd0314c0f7b2291e5b200ac8c7c3b925929181900390910190a350600192915050565b60025490565b600160a060020a0383166000908152602081905260408120548211156103a657600080fd5b600160a060020a03808516600090815260016020908152604080832033909416835292905220548211156103d957600080fd5b600160a060020a03831615156103ee57600080fd5b600160a060020a038416600090815260208190526040902054610417908363ffffffff61081816565b600160a060020a03808616600090815260208190526040808220939093559085168152205461044c908363ffffffff61082f16565b600160a060020a0380851660009081526020818152604080832094909455878316825260018152838220339093168252919091522054610492908363ffffffff61081816565b600160a060020a038086166000818152600160209081526040808320338616845282529182902094909455805186815290519287169391927fddf252ad1be2c89b69c2b068fc378daa952ba7f163c4a11628f55a4df523b3ef929181900390910190a35060019392505050565b60035481565b601281565b600160a060020a03338116600090815260016020908152604080832093861683529290529081205480831061056657600160a060020a03338116600090815260016020908152604080832093881683529290529081205561059d565b610576818463ffffffff61081816565b600160a060020a033381166000908152600160209081526040808320938916835292905220555b600160a060020a0333811660008181526001602090815260408083209489168084529482529182902054825190815291517f8c5be1e5ebec7d5bd14f71427d1e84f3dd0314c0f7b2291e5b200ac8c7c3b9259281900390910190a35060019392505050565b600160a060020a031660009081526020819052604090205490565b60408051808201909152600381527f5444500000000000000000000000000000000000000000000000000000000000602082015281565b600160a060020a03331660009081526020819052604081205482111561067957600080fd5b600160a060020a038316151561068e57600080fd5b600160a060020a0333166000908152602081905260409020546106b7908363ffffffff61081816565b600160a060020a0333811660009081526020819052604080822093909355908516815220546106ec908363ffffffff61082f16565b600160a060020a03808516600081815260208181526040918290209490945580518681529051919333909316927fddf252ad1be2c89b69c2b068fc378daa952ba7f163c4a11628f55a4df523b3ef92918290030190a350600192915050565b600160a060020a033381166000908152600160209081526040808320938616835292905290812054610783908363ffffffff61082f16565b600160a060020a0333811660008181526001602090815260408083209489168084529482529182902085905581519485529051929391927f8c5be1e5ebec7d5bd14f71427d1e84f3dd0314c0f7b2291e5b200ac8c7c3b9259281900390910190a350600192915050565b600160a060020a03918216600090815260016020908152604080832093909416825291909152205490565b6000808383111561082857600080fd5b5050900390565b60008282018381101561084157600080fd5b93925050505600a165627a7a72305820b7bda2c17bde120610d8756414d5e5ff698ab33fd555b18576ba4cdf45ac80bb0029",
  "source": "pragma solidity 0.4.23;\n\n/**\n * @title SafeMath\n * @dev Math operations with safety checks that throw on error\n */\nlibrary SafeMath {\n\n\n    /**\n    * @dev Multiplies two numbers, reverts on overflow.\n    */\n    function mul(uint256 _a, uint256 _b) internal pure returns (uint256) {\n        if (_a == 0) {\n            return 0;\n        }\n        uint256 c = _a * _b;\n        require(c / _a == _b);\n\n        return c;\n    }\n\n    /**\n    * @dev Integer division of two numbers truncating the quotient, reverts on division by zero.\n    */\n    function div(uint256 _a, uint256 _b) internal pure returns (uint256) {\n        require(_b > 0); // Solidity only automatically asserts when dividing by 0\n        uint256 c = _a / _b;\n        // assert(_a == _b * c + _a % _b); // There is no case in which this doesn't hold\n\n        return c;\n    }\n\n    /**\n    * @dev Subtracts two numbers, reverts on overflow (i.e. if subtrahend is greater than minuend).\n    */\n    function sub(uint256 _a, uint256 _b) internal pure returns (uint256) {\n        require(_b <= _a);\n        uint256 c = _a - _b;\n\n        return c;\n    }\n\n    /**\n    * @dev Adds two numbers, throws on overflow.\n    */\n    function add(uint256 _a, uint256 _b) internal pure returns (uint256) {\n        uint256 c = _a + _b;\n        require(c >= _a);\n\n        return c;\n    }\n}\n\n/**\n * @title ERC20 interface\n * @dev see https://github.com/ethereum/EIPs/issues/20\n */\ncontract ERC20 {\n    function totalSupply() public view returns (uint256);\n\n    function balanceOf(address _who) public view returns (uint256);\n\n    function allowance(address _owner, address _spender)\n        public view returns (uint256);\n\n    function transfer(address _to, uint256 _value) public returns (bool);\n\n    function approve(address _spender, uint256 _value)\n        public returns (bool);\n\n    function transferFrom(address _from, address _to, uint256 _value)\n        public returns (bool);\n\n    event Transfer(\n        address indexed from,\n        address indexed to,\n        uint256 value\n    );\n\n    event Approval(\n        address indexed owner,\n        address indexed spender,\n        uint256 value\n    );\n}\n\n/**\n * @title TrueDeck TDP Token\n * @dev ERC20 Token for TrueDeck Platform\n */\ncontract TrueDeckToken is ERC20 {\n    using SafeMath for uint256;\n\n    string public constant name = \"TrueDeck\";\n    string public constant symbol = \"TDP\";\n    uint8 public constant decimals = 18;\n\n    mapping (address => uint256) private balances_;\n\n    mapping (address => mapping (address => uint256)) private allowed_;\n\n    uint256 private totalSupply_;\n\n    /**\n    * @dev Initial supply of TDP tokens.\n    *      200M TDP Tokens\n    */\n    uint256 public INITIAL_SUPPLY = 200000000 * 10 ** uint256(decimals);\n\n    constructor() public {\n        balances_[msg.sender] = INITIAL_SUPPLY;\n        totalSupply_ = INITIAL_SUPPLY;\n    }\n\n    /**\n    * @dev total number of tokens in existence\n    */\n    function totalSupply() public view returns (uint256) {\n        return totalSupply_;\n    }\n\n    /**\n    * @dev Transfer the specified amount of tokens to the specified address.\n    *      This function works the same with the previous one\n    *      but doesn't contain `_data` param.\n    *      Added due to backwards compatibility reasons.\n    * @param _to The address to transfer to.\n    * @param _value The amount to be transferred.\n    */\n    function transfer(address _to, uint256 _value) public returns (bool) {\n        require(_value <= balances_[msg.sender]);\n        require(_to != address(0));\n\n        balances_[msg.sender] = balances_[msg.sender].sub(_value);\n        balances_[_to] = balances_[_to].add(_value);\n        emit Transfer(msg.sender, _to, _value);\n\n        return true;\n    }\n\n\n    /**\n     * @dev Transfer tokens from one address to another\n     * @param _from address The address which you want to send tokens from\n     * @param _to address The address which you want to transfer to\n     * @param _value uint256 the amount of tokens to be transferred\n     */\n    function transferFrom(address _from, address _to, uint256 _value) public returns (bool) {\n        require(_value <= balances_[_from]);\n        require(_value <= allowed_[_from][msg.sender]);\n        require(_to != address(0));\n\n        balances_[_from] = balances_[_from].sub(_value);\n        balances_[_to] = balances_[_to].add(_value);\n        allowed_[_from][msg.sender] = allowed_[_from][msg.sender].sub(_value);\n        emit Transfer(_from, _to, _value);\n\n        return true;\n    }\n\n    /**\n     * @dev Approve the passed address to spend the specified amount of tokens on behalf of msg.sender.\n     *\n     * Beware that changing an allowance with this method brings the risk that someone may use both the old\n     * and the new allowance by unfortunate transaction ordering. One possible solution to mitigate this\n     * race condition is to first reduce the spender's allowance to 0 and set the desired value afterwards:\n     * https://github.com/ethereum/EIPs/issues/20#issuecomment-263524729\n     * @param _spender The address which will spend the funds.\n     * @param _value The amount of tokens to be spent.\n     */\n    function approve(address _spender, uint256 _value) public returns (bool) {\n        allowed_[msg.sender][_spender] = _value;\n        emit Approval(msg.sender, _spender, _value);\n        return true;\n    }\n\n    /**\n     * @dev Function to check the amount of tokens that an owner allowed to a spender.\n     * @param _owner address The address which owns the funds.\n     * @param _spender address The address which will spend the funds.\n     * @return A uint256 specifying the amount of tokens still available for the spender.\n     */\n    function allowance(address _owner, address _spender) public view returns (uint256) {\n        return allowed_[_owner][_spender];\n    }\n\n    /**\n     * @dev Increase the amount of tokens that an owner allowed to a spender.\n     *\n     * approve should be called when allowed_[_spender] == 0. To increment\n     * allowed value is better to use this function to avoid 2 calls (and wait until\n     * the first transaction is mined)\n     * From MonolithDAO Token.sol\n     * @param _spender The address which will spend the funds.\n     * @param _addedValue The amount of tokens to increase the allowance by.\n     */\n    function increaseApproval(address _spender, uint256 _addedValue) public returns (bool) {\n        allowed_[msg.sender][_spender] = (allowed_[msg.sender][_spender].add(_addedValue));\n        emit Approval(msg.sender, _spender, allowed_[msg.sender][_spender]);\n        return true;\n    }\n\n    /**\n     * @dev Decrease the amount of tokens that an owner allowed to a spender.\n     *\n     * approve should be called when allowed_[_spender] == 0. To decrement\n     * allowed value is better to use this function to avoid 2 calls (and wait until\n     * the first transaction is mined)\n     * From MonolithDAO Token.sol\n     * @param _spender The address which will spend the funds.\n     * @param _subtractedValue The amount of tokens to decrease the allowance by.\n     */\n    function decreaseApproval(address _spender, uint256 _subtractedValue) public returns (bool) {\n        uint256 oldValue = allowed_[msg.sender][_spender];\n        if (_subtractedValue >= oldValue) {\n            allowed_[msg.sender][_spender] = 0;\n        } else {\n            allowed_[msg.sender][_spender] = oldValue.sub(_subtractedValue);\n        }\n        emit Approval(msg.sender, _spender, allowed_[msg.sender][_spender]);\n        return true;\n    }\n\n    /**\n    * @dev Gets the balance of the specified address.\n    * @param _owner The address to query the the balance of.\n    * @return An uint256 representing the amount owned by the passed address.\n    */\n    function balanceOf(address _owner) public view returns (uint256) {\n        return balances_[_owner];\n    }\n}\n",
  "sourcePath": "/home/kayeth/aksh/TrueDeck/New TrueToken/TrueDeckToken/contracts/TrueDeckToken.sol",
  "compiler": {
    "name": "solc",
    "version": "0.4.23+commit.124ca40d.Emscripten.clang"
  },
  "schemaVersion": "2.0.0",
  "updatedAt": "2018-09-04T06:01:01.060Z"
}